:020000040800F2
:10000000700D00209D010008D3210008511E00083A
:10001000D1210008191100088531000800000000F6
:10002000000000000000000000000000AF01000818
:100030001B11000800000000B30100089126000811
:10004000B7010008B7010008B7010008B7010008B0
:10005000B7010008B7010008B7010008B7010008A0
:10006000B7010008B7010008B7010008B701000890
:10007000B7010008B7010008B7010008B701000880
:10008000B7010008B7010008B7010008B701000870
:10009000B7010008B7010008B7010008B701000860
:1000A000B7010008B7010008B7010008B701000850
:1000B000B7010008B7010008FD260008B7010008D5
:1000C000B7010008B7010008B7010008B701000830
:1000D000B7010008B7010008FD2C0008252E000814
:1000E0007D140008B7010008B7010008B701000837
:1000F000B7010008B7010008B7010008B701000800
:10010000B7010008B70100082D270008B701000853
:100110000D2A00083D2B0008B7010008B7010008B0
:10012000B7010008B7010008B7010008B7010008CF
:10013000B7010008B7010008B7010008B7010008BF
:10014000B7010008B7010008B7010008B7010008AF
:10015000B7010008B7010008B7010008B70100089F
:10016000B7010008B7010008B7010008B70100088F
:10017000B7010008B7010008B7010008B70100087F
:10018000B7010008B7010008DFF80CD000F060FAF2
:1001900000480047953B0008700D00200648804746
:1001A00006480047FEE7FEE7FEE7FEE7FEE7FEE75C
:1001B000FEE7FEE7FEE7FEE7A1260008890100084A
:1001C00040EA01039B0703D009E008C9121F08C0D9
:1001D000042AFAD203E011F8013B00F8013B521E59
:1001E000F9D27047D2B201E000F8012B491EFBD2D0
:1001F00070470022F6E710B513460A460446194632
:10020000FFF7F0FF204610BD30B505462A460B46E5
:1002100012F8010B13F8014B08B1A042F8D01CB141
:10022000002802D06D1CF1E7284630BD00F00042E6
:1002300030F000400AD0C10D01F56071C0F3160026
:1002400042EA0151C20840071143704700200146AD
:10025000704730B50B46014600202022012409E0FA
:1002600021FA02F59D4205D303FA02F5491B04FA6F
:1002700002F52844151EA2F10102F1DC30BD2DE982
:10028000F05F0546002092469B468846064681461A
:1002900040241BE0284641464746224600F0F9F933
:1002A00053465A46C01A914110D311461846224669
:1002B00000F0E0F92D1A67EB01084F4622460120B5
:1002C000002100F0D7F917EB00094E41201EA4F1E0
:1002D0000104DFDC484631462A464346BDE8F09F2C
:1002E0002DE9FE4F804681EA0300C00F0C460090C6
:1002F00021F0004123F00045B8EB0200A94105D2EE
:100300004046214690461C460B46024623F00040DC
:10031000104347D0270DC7F30A00C3F30A510290D8
:10032000401A019040286BDAC3F3130040F4801B9D
:100330000098924620B10023D2EB030A63EB0B0B2B
:1003400001985946C0F14002504600F093F9064624
:100350000D4650465946019A00F0ABF910EB0800E3
:100360006141002487EA115284EAE7731A4340D0BE
:10037000009A62B3019A012A4FEA075215DC001B6A
:1003800061EB02014FF0004202EA0752CDE9004260
:10039000001C41F5801132462B4600F0ABF903B04A
:1003A000BDE8F08F40462146F9E7001B61EB0201F2
:1003B000001C41F5801300185B412018A2F50017BE
:1003C00047EB030140EAD570B6196D4111E06D08A5
:1003D0004FEA360645EAC0754FEA0752001B61EB4B
:1003E0000201001C41F5801149084FEA3000001954
:1003F000514132462B4603B0BDE8F04F00F06BB9D7
:100400000098012240000023D0EB020263EBE0736E
:10041000009821464FEAE074B8EB000061EB04015C
:10042000E9E783F000435BE781F0004158E72DE9FD
:10043000FE4F81EA030404F0004421F000410094DF
:100440004FF0000B23F0004350EA01045ED052EA63
:1004500003045BD0C3F30A54C1F30A552C44A4F23D
:10046000F3340194A0FB0254C1F3130141F4801151
:10047000C3F3130343F4801301FB024400FB034E58
:10048000840A970A44EA815447EA8357A4FB076821
:1004900002958D0A05FB07854FEA932C04FB0C544B
:1004A0002705029D4FEA065847EA1637B5EB0805BF
:1004B0006EEB070C870E920E47EA811742EA831211
:1004C000A7FB0201B6EB0B0164EB00042B0D43EA22
:1004D0000C335E1844EB1C50DA465146E7FB020130
:1004E000C5F313044FEA0B3343EA14534FEA0432C3
:1004F000019C43EA0603A4F10C040294009CCDE99C
:1005000000B400F0F7F803B0BDE8F08F002001461A
:10051000F9E72DE9F04D81EA030404F0004B21F0E6
:10052000004514464FF0000A23F0004150EA05024E
:1005300020D054EA01021DD0C5F30A570246C5F384
:100540001303C1F31300C1F30A5640F4801543F4BA
:100550008013A7EB0608101BD64608F2FD3873EB94
:10056000050002D308F1010801E092185B41B8F1DF
:10057000000F03DA00200146BDE8F08D00204FF4A3
:100580008011064684460EE0171B73EB050705D362
:10059000121B63EB050306434CEA010C49084FEAC2
:1005A000300092185B4150EA0107EDD152EA030096
:1005B00012D082EA040083EA0501084305D0101B2B
:1005C000AB4106D20122002306E000224FF0004397
:1005D00002E06FF0010253101AEB06004CEB0851D9
:1005E00010EB0A0041EB0B01BDE8F04D00F073B8D1
:1005F000C1F30A52C1F3130140F2FF3341F48011F9
:100600009A4202DA00200146704740F233439A4290
:10061000A2F2334202DC524200F03BB800F02AB8AA
:1006200030B5041E71F1000404DB4FF00044404279
:1006300064EB0101141E73F1000405DB1C464FF04E
:100640000043524263EB0403994208BF904230BD1D
:10065000064C074D06E0E06840F0010394E807000F
:1006600098471034AC42F6D3FFF792FD903D000856
:10067000B03D0008202A04DB203A00FA02F10020F5
:1006800070479140C2F1200320FA03F319439040D0
:100690007047202A04DB203A21FA02F0002170473B
:1006A00021FA02F3D040C2F12002914008431946DA
:1006B0007047202A06DBCB17203A41FA02F043EAC2
:1006C000E07306E041FA02F3D040C2F1200291400B
:1006D00008431946704710B5141E73F1000408DA78
:1006E000401C41F1000192185B411A4301D120F0F6
:1006F000010010BD2DE9F04D92469B4611B1B1FAB3
:1007000081F202E0B0FA80F220329046FFF7B2FFA9
:1007100004460F4640EA0A0041EA0B0153465A4696
:10072000084313D0114653EA010019D0C8F1400222
:100730005046FFF7AEFF05460E4650465946424624
:10074000FFF798FF084305D0012004E02046394612
:10075000BDE8F08D0020054346EAE0762C433743A0
:100760000A986305E40AA0EB08000022FD0A44EAA7
:1007700047540A3002D500200146E9E70105101967
:100780006941DDE9084500196941BDE8F04DA2E77E
:100790001048007800281AD00F494888C0B1B0F539
:1007A000FA7F15D891F900000C4900F10A02142AC9
:1007B00001D8012009E000F12D02232A01D20220F4
:1007C00003E00B38222803D803200877C0B2704713
:1007D00000207047EC000020D0070020040100201A
:1007E0000648007840B10649488828B1B0F5FA7F3C
:1007F00002D2B1F90400704700207047EC000020DD
:10080000D007002070B54FF4407001F015FDA8200E
:1008100003F04CF94FF4E134204602F02BFA204665
:1008200002F08CFA204602F025FB204602F0ACF9DB
:10083000204602F02DF9204602F0B0FB38A002F06D
:10084000A3FC46A002F0A0FC53A002F09DFC61A016
:1008500002F09AFC01F0FEFA4FF4FA64204603F02D
:1008600043F901F01DF8642003F03EF901F018F897
:10087000642003F039F901F013F865A002F084FC5C
:1008800000F06CFF6DA002F07FFC01F00DF901F0AB
:1008900059F973A002F078FC01F0BAFB01F0AAFB51
:1008A00003F0B0F903F086F975A002F06DFC01F0D9
:1008B000BBFF81A002F068FC00F072FC65102846C6
:1008C00003F012F900F02AFC204603F00DF900F0C5
:1008D00029FD284603F008F900F0E0FC284603F063
:1008E00003F980A002F050FC884900200870A02184
:1008F0008748FFF77EFC24218648FFF77AFC86A014
:1009000002F042FCA410214690A002F03DFC2146DA
:1009100097A002F039FCBDE870409EA002F034BC04
:100920000D0A3D3D3D3D3D3D3D3D3D3D3D3D3D3D5A
:100930003D3D3D3D3D3D3D3D3D3D3D3D3D3D3D3DE7
:100940003D3D3D3D3D3D3D3D3D3D3D3D3D3D3D3DD7
:100950003D3D3D3D3D3D3D3D0D0A00002020202018
:1009600020536D6172742056656869636C6520530D
:1009700061666574792053797374656D202D204309
:100980006F726520426F6F74696E672E2E2E202065
:10099000202020200D0A00003D3D3D3D3D3D3D3DD8
:1009A0003D3D3D3D3D3D3D3D3D3D3D3D3D3D3D3D77
:1009B0003D3D3D3D3D3D3D3D3D3D3D3D3D3D3D3D67
:1009C0003D3D3D3D3D3D3D3D3D3D3D3D3D3D0D0ABA
:1009D000000000005B494E49545D2043616C696230
:1009E000726174696E67204C6F61642043656C6C42
:1009F000732028506C6561736520444F204E4F541E
:100A000020544F55434821292E2E2E0D0A00000058
:100A10005B494E49545D205374617274696E67205E
:100A2000486967682D5370656564204779726F73F4
:100A3000636F70652E2E2E0D0A0000005B494E4933
:100A4000545D205374617274696E6720556C7472C2
:100A500061736F6E6963732E2E2E0D0A0000000005
:100A60005B494E49545D205374617274696E67200E
:100A70004C4544204D61747269782E2E2E0D0A006B
:100A80005B494E49545D2057616B696E67207570F4
:100A9000203447204D6F64756C6520284E6574774F
:100AA0006F726B20526567697374726174696F6EDF
:100AB000292E2E2E0D0A00005B494E49545D20530D
:100AC00074617274696E672045535038323636202F
:100AD00057694669204D6F64756C652E2E2E0D0A80
:100AE000000000005B494E49545D20496E697469FD
:100AF000616C697A696E6720526164617220427527
:100B0000666665722E2E2E0D0A000000EC00002095
:100B1000D0070020040100205B5359535D20416C35
:100B20006C204861726477617265204F6E6C696EEB
:100B3000652120456E746572696E6720436F72652A
:100B4000204C6F6F702E2E2E0D0A00005B535953F0
:100B50005D204D5154542055706C6F616420496E76
:100B600074657276616C3A202564206D730D0A00FD
:100B70005B5359535D205261646172205072696EFB
:100B80007420496E74657276616C3A202564206D1C
:100B9000730D0A005B5359535D2044617461204614
:100BA0006F726D61743A20466C6F617420284163E6
:100BB0007475616C20416E676C6520696E204465B8
:100BC0006772656573290D0A000000002DE9FC417C
:100BD0001548164D0278297815A002F0D5FA0024A0
:100BE0001D4E0A2711E006EBC40041888279B1FB53
:100BF000F7F3B0F90410CDE9001290F90020214676
:100C0000164802F0C1FA641CE4B22878844201D28A
:100C1000142CE8D310F0FF0F04D1BDE8FC4110A064
:100C200002F0B2BABDE8FC81ED000020EC0000202B
:100C30005B52414441525D205461726765742043A8
:100C40006F756E743A2025642C20416C61726D3A88
:100C50002025640D0A000000D0070020243C000875
:100C600020204E6F20746172676574732064657410
:100C700065637465640D0A002DE9F04FDFF89C8010
:100C80002DED028B8DB0B8F90CB09FED258A00EEEA
:100C900010BAF8EEC00A80EE880A10EE100AFFF7CC
:100CA000C5FAB8F90AA0064600EE10AA0F46F8EEFB
:100CB000C00A80EE880A10EE100AFFF7B7FAB8F9FA
:100CC0000890044600EE109A0D46F8EEC00A80EE39
:100CD000880A10EE100AFFF7A9FA41EC100BD8E9C8
:100CE000002311480F490DF124080068096888E8BD
:100CF0000F000E48494653EC102B0068CDF800A0B9
:100D00000696CDE9077002AF094887E8300802F07F
:100D10003BFA0DB0BDEC028BBDE8F08F0401002062
:100D20000000C842E8000020DC000020D0000020C5
:100D3000683C00080A4810B5417C00290ED0817C2F
:100D400000290BD10121817406A002F01DFA02F0E6
:100D50004CFFBDE8104012A002F016BA10BD000012
:100D6000040100200D0A5B534F535D20494D504153
:100D7000435420262054494C542044455445435460
:100D800045442120457865637574696E6720344752
:100D90002050726F746F636F6C2E2E2E0D0A000040
:100DA0005B4F4B5D2034472050726F746F636F6CE4
:100DB0002045786563757465642053756363657356
:100DC0007366756C6C79210D0A0D0A007CB5184CA0
:100DD000A069401CA0610A2829D30020A061FFF768
:100DE000F5FEFFF7D5FC0546FFF7FAFC002801DA0F
:100DF000414200E00146FA2900DDFA21CEB26268E4
:100E00000A21B2FBF1F22368CDE90060B3FBF1F1F6
:100E10002B4608A002F0B8F9A088334681B220889A
:100E200002B02A46BDE8704080B201F0B2BB7CBD82
:100E3000040100205B53454E442D3E46524F4E5414
:100E40005D20554C3A2564636D2055523A25646304
:100E50006D204469723A25642053706565643A25B3
:100E6000646B6D2F6820287261773A256C64290DB8
:100E70000A0000002DE9F04122492DED048B86B0D7
:100E80004869401C48610A2837D300204861B1F9FD
:100E9000080000EE100AB1F90A00F8EEC00A9FED52
:100EA0001A0AC0EE808A00EE900AB1F90C00F8EE42
:100EB000E00A80EE808A00EE900AF8EEE00A80EE0A
:100EC000809AFFF78DFC804619EE100AFFF7AEF905
:100ED00006460F4618EE100AFFF7A8F904460D461D
:100EE00018EE900AFFF7A2F98DE8F00141EC100B23
:100EF000064853EC102B02F047F906B0BDEC048B0A
:100F0000BDE8F081040100200000C842D03C000888
:100F100010B588B0684600F079FC124C40B1BDF8BD
:100F20000C002081BDF80E006081BDF8100007E0C4
:100F300000F0FEFB208100F0F5FB608100F008FC72
:100F4000A08100F011F801F033FA00F0B7FC00F0D6
:100F500003FD206000F048FD606008B0BDE810406F
:100F6000FFF78ABE0401002010B5394A00232DED99
:100F7000028B104692F82240B0F90C000121F4B126
:100F8000148C1084041B24B204209FED328AB4F523
:100F9000FA7F18DB02215177907701F085F800EE97
:100FA000104AF8EEC00A80EE880A10EE100AFFF729
:100FB0003DF941EC100B28A053EC102B19E01084E4
:100FC00082F8221038E014F5FA7F18DC5177907718
:100FD00001F060F800EE104AF8EEC00A80EE880AD0
:100FE00010EE100AFFF722F941EC100B25A053EC8C
:100FF000102BBDEC028BBDE8104002F0C5B81448C0
:10100000917F407F89B1491E9177022807D001283E
:101010001BD1BDEC028BBDE8104001F03BB8BDEC2C
:10102000028BBDE8104001F03FB802280BD0012828
:101030000BD114F1FA0F08DB5377BDEC028BBDE83E
:10104000104001F025B8FA2CF6DDBDEC028B10BD86
:10105000040100200000C8425B5455524E5D2052EE
:10106000696768742064657465637465642C2079AD
:1010700061775F64656C74613D252E32662064651E
:10108000670D0A005B5455524E5D204C6566742016
:1010900064657465637465642C207961775F646549
:1010A0006C74613D252E3266206465670D0A000070
:1010B00070B5154BB3F90800002820D000F57A6010
:1010C000B0F5FA5F01D9012000E000200F4D4FF488
:1010D000FA720F4E29680F4C914205DC316891423B
:1010E00002DC2168914201DD012100E000210022A3
:1010F00030B129B1012058742A603260226070BD7D
:101100005A749A7470BD000004010020D0000020C1
:10111000DC000020E8000020FEE7704700B59BB02F
:1011200001F072FE08A30BA20CA101A802F03CF88A
:101130000FA0009013A342F2107216A101A800F0B4
:101140005FF91BB000BD000031323334353637381B
:1011500000000000313233340000000041542B43C2
:10116000574A41503D222573222C2225732200002C
:101170005769466920436F6E6E6563742046414926
:101180004C0000005769466920436F6E6E656374BA
:10119000656400005749464920474F542049500094
:1011A00038B501F031FE17A04FF47A74009017A300
:1011B000224618A118A000F023F96510284602F075
:1011C00093FC16A1009118A341F2883219A11BA02B
:1011D00000F016F9600002F087FC1AA100911DA32F
:1011E00022460CA11EA000F00BF9284602F07CFC60
:1011F0001EA0009022A3224606A125A000F000F91F
:1012000038BD00004154204641494C004154204F14
:101210004B0000004F4B00004154000052657365C5
:1012200074204641494C00005265736574204F4B51
:1012300000000000726561647900000041542B5287
:1012400053540000535441204D6F6465204641497A
:101250004C000000535441204D6F6465204F4B00FB
:1012600041542B43574D4F44453D310053696E6700
:101270006C6520436F6E6E204641494C00000000B3
:1012800053696E676C6520436F6E6E204F4B000094
:1012900041542B4349504D55583D300000B59BB04B
:1012A00040F25B7307A20CA101A801F07DFF10A022
:1012B000009014A342F2107216A101A800F0A0F849
:1012C0001BB000BD6D717474732E6865636C6F75AF
:1012D00064732E636F6D000041542B4D5154544381
:1012E0004F4E4E3D302C222573222C25642C31008C
:1012F0004D51545420436F6E6E65637420464149CE
:101300004C0000004D51545420436F6E6E65637461
:10131000656400002B4D515454434F4E4E45435489
:101320004544000000B5CDB00DA000900FA34FF4D0
:10133000FA6212A112A000F063F81548009015A3FC
:1013400017A219A101A801F02FFF22A0009027A346
:1013500040F6B83209A101A800F052F84DB000BD26
:101360004D51545420436C65616E00004D515454EE
:1013700020436C65616E204F4B0000004F4B000016
:1013800041542B4D515454434C45414E3D30000087
:10139000143D0008314675703741773250780000AF
:1013A000746573743200000041542B4D51545455F0
:1013B0005345524346473D302C312C222573222C75
:1013C000222573222C222573222C302C302C222211
:1013D000000000004D515454205573657220436F36
:1013E0006E666967204641494C0000004D515454D7
:1013F000205573657220436F6E666967204F4B00FE
:101400002DE9F0411D4616460F460446DDF81880CA
:1014100001F0FAFC21460AA001F0B6FE204601F0D8
:1014200091FD3146384601F0A1FD10B1294609A0D1
:1014300001E041460CA0BDE8F04101F0A5BE00006E
:101440005B4553505D2053656E643A2025730D0A49
:10145000000000005B4553505D2053756363657366
:10146000733A2025730D0A005B4553505D20466199
:10147000696C3A2025730D0A000000002DE9F05F29
:101480004FF4804000F090F83F4C01274FF0C8091E
:101490004FF0140A4FF0000B4EF660254FF47A66B9
:1014A00040B3B903394800F031F9394A012853D023
:1014B0002078D8B100219046104601F055F94046F9
:1014C00001F05CF9A84200D9284600EB0010410069
:1014D000B1FBF9F0A060A068B04200D9A660A06896
:1014E000142801D2C4F808A084F800B04FF480405A
:1014F00000F054F84FF4805000F056F8002840D027
:101500004FF48051234800F001F9DFF88C80012866
:101510002DD06078D0B10021404601F025F9404639
:1015200001F02CF9A84200D9284600EB0010410038
:10153000B1FBF9F0E060E068B04200D9E660E06835
:10154000142801D2C4F80CA084F801B0BDE8F05F03
:101550004FF4805000F022B800219046104601F070
:1015600023F90121404601F0FFF82770BEE7002172
:10157000404601F019F90121404601F0F5F8677085
:10158000E4E7BDE8F09F0000B00000200008024042
:10159000000C0040001002400008004001490860B3
:1015A00070470000143C0140034A014600201268C5
:1015B0000A4200D001207047143C014030B51A4A5D
:1015C0008379016853B313688B431360111D0B6853
:1015D0000468A3430B60017911440B68046823433A
:1015E0000B60114B083319680468A14319601C1D76
:1015F00021680568A94321604179102905D011446B
:101600000A68006802430A6030BD19680268114325
:101610001960216800680143216030BD00791044E1
:1016200002688A43026030BD003C01401CB50121C4
:10163000022000F051FE4FF4E040009001208DF8B0
:10164000040000208DF8060002218DF80510084CDA
:101650008DF807006946204600F00CF8A1142046DA
:1016600000F05DF84FF40051204600F058F81CBD22
:1016700000040240F0B5002201274FF0030C0B6874
:1016800007FA02F52B40AB422CD1066853000CFA46
:1016900003F4A64306600E79D0F800E09E4046EAC7
:1016A0000E0606600E79012E01D0022E12D1866838
:1016B000A64386604E79D0F808E09E4046EA0E06C2
:1016C00086604668AE43466045688E799640B6B2FD
:1016D00035434560C568A543C560CC799C40C36867
:1016E0001C43C460521C102AC9D3F0BD4B07DB0E4B
:1016F0009A40C90810B500EB8100016A0F249C4094
:10170000A1430162016A1143016210BD024600203B
:1017100012690A4200D0012070474183704701835B
:10172000704700000148B0F904007047A60000208F
:1017300000B587B0684600F069F818B1BDF90C0033
:1017400007B000BD0148B0F90200F9E7A60000208B
:101750000148B0F906007047A600002010B54FF40C
:10176000967002F0C1F902221146062000F06CF8D2
:10177000322002F0B9F91B220821032000F064F89E
:10178000322002F0B1F900220321062000F05CF8BB
:10179000BDE81040322002F0A7B900002DE9F04169
:1017A000164C00222078002826D0154900250878FC
:1017B000A42820D1487803281DD1887808281AD178
:1017C000CE781B2E17D10020331DDBB204E00F5C56
:1017D000401C3A44D2B2C0B28342F8D80848001D37
:1017E000305C904207D11B220648091DFEF7E8FC39
:1017F0000549012008702570BDE8F081A000002097
:1018000050050020B4070020A600002070B5040099
:1018100014D0FFF7C3FF0A4D287800280DD01B22F3
:1018200008492046FEF7CCFCA0896880E089A880A2
:10183000208AE88000202870012070BD002070BD43
:10184000A6000020B40700207CB512A3134DD3E9F5
:101850000043CDE900438DF801008DF802108DF8AA
:1018600003209DF800301144184408448DF804000A
:1018700000246E468021284601F0E8FB0028F9D0BC
:10188000315D284601F07AFC641CE4B2052CF1D3EA
:101890007CBD0000A400000000000000004C0040DF
:1018A00010B500F0E3F9044C606000F02FFA2061FD
:1018B00000F07EFAE06110BDC800002070B500F0B5
:1018C000D5F9214C00252060616888420ED968B1A5
:1018D000401A00EE100ADFED1D0AB8EE400A80EE55
:1018E000201ABDEEC10A84ED020A00E0A56000F0F6
:1018F0000DFAE060216988420ED968B1401A00EE05
:10190000100ADFED130AB8EE400A80EE201ABDEE91
:10191000C10A84ED050A00E0656100F049FAA061A2
:10192000E16988420ED968B1401A00EE100ADFED75
:10193000090AB8EE400A80EE201ABDEEC10A84ED15
:10194000080A70BD256270BDC80000209A99DB436B
:101950000000C84300806D442DE9F84F0026DFF8F1
:101960007C90DFF87CB035463446B2464FF40078C0
:101970001C4F0021384600F0F7FE0021384600F0E9
:1019800013FF5F46CBF808A08BF800A041464846FD
:10199000FFF7C5FE142002F0C1F841464846FFF7A4
:1019A000BCFE3C2002F0A0F8B868142806D3B86842
:1019B000B0F57A6F02D8B868761C0544641CE4B2AE
:1019C000022CD5D3064B02209B1C009003F10E0283
:1019D0002946304600F050F8BDE8F88F0008024074
:1019E000B0000020000C00402DE9F84F0026DFF881
:1019F0007C90DFF87CB035463446B2464FF4004860
:101A00001C4F0021384600F0AFFE0021384600F0A0
:101A1000CBFE5F46CBF80CA08BF801A041464846B0
:101A2000FFF77DFE142002F079F841464846FFF7A3
:101A300074FE232002F058F8F868142806D3F868DA
:101A4000B0F57A6F02D8F868761C0544641C14F06F
:101A5000FF04D5D0064B0120DB1C009003F11102DE
:101A60002946304600F008F8BDE8F88F000802402B
:101A7000B00000200008004030B540F6C414039DBB
:101A800040B1B1FBF0F000251D70A04200D9204606
:101A9000106030BD1878A84203D2401C187010683E
:101AA00030BD2046146030BD2DE9F04186B00121E3
:101AB000042000F011FC01218D03284600F024FCD5
:101AC00001248DF80440002668118DF80660022775
:101AD000DFF86C8000908DF805708DF8077069460E
:101AE0004046FFF7C7FD8DF8046000958DF807703C
:101AF00069464046FFF7BEFD0E21022000F0EAFCD9
:101B00008DF80C6010208DF80D0002958DF80E40B8
:101B100002A8FFF753FD2846FFF740FD28208DF867
:101B2000100006208DF811008DF812408DF813403A
:101B300004A800F04FFB00F051F806B0BDE8F081BA
:101B400000080240F0B585B00121142000F0C4FB6C
:101B50000121880300F0D8FB01258DF804500026F0
:101B60004FF400408DF80660022400908DF8054087
:101B70008DF8074069461748FFF77CFDE7028DF8AE
:101B8000046000978DF8074069461348FFF772FD1F
:101B90000C21042000F09EFC8DF80C6010208DF8C4
:101BA0000D0002978DF80E5002A8FFF707FD38468A
:101BB000FFF7F4FC28208DF8100006208DF81100A6
:101BC0008DF812408DF8135004A800F003FB05B007
:101BD000F0BD000000080240001002401FB50121C6
:101BE0000C2000F085FB4FF6FF7001905320ADF8FC
:101BF000000000201B4CADF80800ADF8020069465B
:101C0000204600F0D3FD0121204600F0A7FD01226F
:101C10001146204600F0C0FD134C6946204600F0F6
:101C2000C5FD0121204600F099FD01221146204604
:101C300000F0B2FD32208DF80C0007208DF80D0069
:101C400001208DF80E008DF80F0003A800F0C2FAF5
:101C50001E208DF80C0002208DF80E0003A800F065
:101C6000B9FA1FBD000C0040000800402DE9F0410A
:101C7000244E002501213046FFF751FD012001F0DF
:101C80004DFF02213046FFF748FD00241E4F08E0BB
:101C900001206D1C01F042FFBD4202D90020BDE8C9
:101CA000F08101213046FFF731FD0128F0D00025F9
:101CB00002213046FFF733FD6400012001F02EFFC2
:101CC00002213046FFF729FD01213046FFF71EFDB6
:101CD000012800D1641C012001F020FF6D1CEDB231
:101CE000182DE5D302213046FFF719FD84F40004D6
:101CF000012001F013FF02213046FFF70EFD2046C0
:101D0000CDE7000000040240F04902002DE9F04157
:101D1000254E002580213046FFF701FD012001F00E
:101D2000FDFE4FF4807841463046FFF7F6FC002474
:101D30001E4F08E001206D1C01F0F0FEBD4202D9EB
:101D40000020BDE8F08180213046FFF7DFFC01284C
:101D5000F0D00025474639463046FFF7E0FC6400E6
:101D6000012001F0DBFE39463046FFF7D6FC80212A
:101D70003046FFF7CBFC012800D1641C012001F0A4
:101D8000CDFE6D1CEDB2182DE5D339463046FFF778
:101D9000C6FC84F40004012001F0C0FE3946304640
:101DA000FFF7BBFC2046CCE700040240F0490200EC
:101DB0002DE9F041244E002502213046FFF7AFFC0B
:101DC000012001F0ABFE04213046FFF7A6FC002401
:101DD0001E4F08E001206D1C01F0A0FEBD4202D99B
:101DE0000020BDE8F08102213046FFF78FFC01287A
:101DF000F0D0002504213046FFF791FC640001205B
:101E000001F08CFE04213046FFF787FC02213046AA
:101E1000FFF77CFC012800D1641C012001F07EFE4C
:101E20006D1CEDB2182DE5D304213046FFF777FC89
:101E300084F40004012001F071FE04213046FFF714
:101E40006CFC2046CDE70000000C0240F049020087
:101E5000FEE700002DE9FC470121022000F03CFADA
:101E60000121082000F038FA012502248DF80450E1
:101E700000268DF80660DFF8A4908DF805400094E8
:101E80008DF8074069464846FFF7F4FB8DF804607B
:101E900000958DF8075069464846FFF7EBFB8DF833
:101EA00004508DF80660E7018DF8054000978DF825
:101EB000074069464846FFF7DDFB802000908DF81B
:101EC00004608DF8075069464846FFF7D3FB8DF84C
:101ED000045004208DF80660DFF8448000908DF8EF
:101EE00005408DF8074069464046FFF7C3FB8DF873
:101EF000046000948DF8075069464046FFF7BAFB2E
:101F000002214846FFF709FC39464846FFF705FC21
:101F100004214046FFF701FCBDE8FC8700040240B5
:101F2000000C02402DE9F04106464FF4805116485E
:101F3000FFF7F3FB00F09CFB0125771C002407E072
:101F4000002000F0FBF8002000F0F8F8641CE4B278
:101F5000B442F5D3284600F0F1F8002000F0EEF886
:101F6000FCB207E0002000F0E9F8002000F0E6F8FD
:101F7000641CE4B2082CF5D300F01AF96D1CEDB224
:101F8000082DDBD9BDE8F081000402402DE9F041C5
:101F900006464FF480511648FFF7BFFB00F068FB80
:101FA0000125771C002407E0002000F0C7F800207E
:101FB00000F0C4F8641CE4B2B442F5D3284600F043
:101FC000BDF8FF2000F0BAF8FCB207E0002000F0F6
:101FD000B5F8002000F0B2F8641CE4B2082CF5D388
:101FE00000F0E6F86D1CEDB2082DDBD9BDE8F081FC
:101FF0000004024010B508240021204600F0C2F879
:10200000012C03D0641E14F0FF04F5D110BD0000B4
:1020100010B5FFF70BFB00F02BFB4FF480511B4872
:10202000FFF77BFB00240021092000F0ABF8641CC3
:10203000082CF8DB00F0BCF8002401210A2000F095
:10204000A1F8641C082CF8DB00F0B2F8002407218A
:102050000B2000F097F8641C082CF8DB00F0A8F8BF
:10206000002401210C2000F08DF8641C082CF8DB02
:1020700000F09EF8002400210F2000F083F8641C7B
:10208000082CF8DBBDE8104000F092B800040240D4
:1020900001F090BD034AA2F149000178401C00F014
:1020A0000DB8000059000020034AA2F10900017890
:1020B000401C00F003B80000190000202DE9F04793
:1020C0008946824690464FF480511B48FFF725FB16
:1020D00000F0CEFA00262BE01AF806500024002764
:1020E00007E0002000F02AF8002000F027F87F1C0D
:1020F000FFB2AF42F5D3671CF8B200F01FF808EB4F
:10210000C500005D00F01AF8681CC4B207E00020AA
:1021100000F014F8002000F011F8641CE4B2082C60
:10212000F5D300F045F8FCB2082CD8D3761CF6B2F3
:102130004E45D1D3BDE8F087000402402DE9F041BF
:1021400008240F4F05464FF4804866022806414692
:10215000384602D5FFF7E3FA01E0FFF7DEFA314631
:102160003846FFF7DCFA31463846FFF7D6FA6806FC
:10217000050E641E14F0FF04E8D1BDE8F0810000F4
:102180000004024070B50D4604464FF480510748E4
:10219000FFF7C3FA00F06CFA2046FFF7CFFF28469E
:1021A000FFF7CCFFBDE8704000F06ABA00040240BF
:1021B00070B5064D4FF4005421462846FFF7AFFA9C
:1021C00021462846BDE87040FFF7A7BA0004024048
:1021D000FEE7704730B50F23C27801780125FAB1C8
:1021E000144A126801F1E02102F4E062C2F5E062F3
:1021F000C2F30722C2F10404D3404278A24084789B
:102200001C401443220181F80024007800F01F01D3
:102210008D404009800000F1E020C0F8005130BD41
:1022200001F01F0085404809800000F1E020C0F85F
:10223000805130BD0CED00E00249084302490860BE
:10224000704700000000FA050CED00E02DE9F041B8
:10225000054600201E4F0E46042904D3AC78E978C9
:102260007970142C03D938707870BDE8F0813C7017
:10227000A0211848FDF7BDFF002122E001EB8100FD
:1022800000F10902001DB24219D82844027890F8E2
:1022900001C0803A4FFA82FE8278C378012A00D0CA
:1022A0005B420C4A0CEB8C0C02EBC1024FEA4C0C6B
:1022B00082F800E0A2F802C0938000799071491C76
:1022C000C9B2A142DAD3B868401CB860CDE70000BB
:1022D000EC000020D0070020044A0029116801D03A
:1022E000014300E081431160704700003038024034
:1022F000044A0029116801D0014300E081431160C4
:102300007047000040380240044A0029116801D09B
:10231000014300E0814311607047000044380240EF
:1023200070B5204B1968204C11F00C0104D06610D8
:10233000042903D0082903D004601BE0066019E0DB
:10234000184A121F1168C1F38055116801F03F014E
:1023500015B1B6FBF1F101E0B4FBF1F114681268BC
:10236000C4F388146143C2F30142521C5200B1FB12
:10237000F2F1016019680F2202EA11110B4A545C54
:102380000168E14041601C68072505EA9424145D5A
:1023900021FA04F484601B6805EA5333D25CD1400F
:1023A000C16070BD083802400024F4000000002025
:1023B0002DE9F04190B04021684600F06DF806002C
:1023C00051D00024DFF8A4802546294F49E0B97890
:1023D0001DF80400052940D2DFE801F003070B11C6
:1023E0001900F4283BD101200FE0F32803D102208B
:1023F0000BE0F22801D0002007E0032005E0F128DF
:1024000001D0BD702BE0BD800420B87027E0B988F2
:10241000424608F80100491C89B2B980FF291CD83E
:1024200002291CD31088831D9BB2B3F5807F14D87A
:10243000994214D308EB00018A78F82A0DD1CA78A2
:10244000F72A0AD10A79F62A07D14979F52904D160
:10245000801C81B20548FFF7F9FEBD70BD80641C89
:10246000A4B2B442B3D310B0BDE8F081700800202C
:10247000EC000020074841880288914203D8018877
:102480004088081A04E041880088C1F500710844BA
:1024900080B270479A00002030B50C460346FFF723
:1024A000E9FF021E11D0A24200D922460020074DAA
:1024B000074C03E0615C1954401C80B2698890426B
:1024C0000144C1F30801F5D3698030BD9A000020B2
:1024D0002801002010B58A0721F003040849120FD3
:1024E00021440F23D1F8084893409C43C1F8084881
:1024F000D1F8083890400343C1F8083810BD0000F7
:102500000030014010B5064C0146204600F036FE72
:102510008021204600F09AFD0028F9D010BD00006F
:102520000010014010B5044602E0641CFFF7EAFF0A
:1025300020780028F9D110BD70B50D46064600245C
:1025400004E0305D00F006F8641CA4B2AC42F8D39D
:1025500070BD000010B5064C0146204600F00EFE8E
:102560008021204600F072FD0028F9D010BD000047
:102570000014014070B505460C46FF20FFF7EAFF46
:1025800021462846FFF7D8FFBDE87040FE20FFF740
:10259000E1BF08B5FA2800D9FA20FA2900D9FA21B2
:1025A0008DF800008DF801108DF802208DF80330B1
:1025B00004216846FFF7DEFF08BD00000CB50022CD
:1025C000274900920192086840F4803008604FF477
:1025D000A043086800F4003001900098401C00906F
:1025E000019810B900989842F3D10868800334D557
:1025F000012001901A484030026842F08052026087
:102600001848026842F440420260154808300268E7
:102610000260026842F400420260026842F4A05282
:102620000260031F104A1A600A6842F080720A6052
:102630000A689201FCD50D4940F205720A600168F2
:1026400021F003010160016841F0020101600168AD
:10265000C1F381010229FAD10CBD01920CBD000029
:10266000003802400070004008544007003C02401F
:102670004FF400510148FFF750B800000004024039
:102680004FF400510148FFF74AB80000000402402F
:1026900002484168491C416070470000F800002072
:1026A000124810B5016841F47001016010480168DA
:1026B00041F0010101600E4A0021083211600268F8
:1026C0000C4B1A400260031D0B4A1A60026822F488
:1026D0008022026006480C300160FFF76FFF03495B
:1026E0004FF000608039086010BD000088ED00E008
:1026F00000380240FFFFF6FE1030002410B5094CF0
:102700000121204600F03CF8002809D00649CA887B
:10271000521CCA802046BDE81040012100F021B8BB
:1027200010BD000000080040B000002010B5094CAA
:102730000121204600F024F8002809D006498A88A3
:10274000521C8A802046BDE81040012100F009B8E3
:1027500010BD0000000C0040B0000020C943018201
:102760007047C943018270470029018802D041F0B7
:10277000010101E021F0010101807047406A7047CA
:1027800002460020138A92890B4202EA010202D01B
:10279000002A00D001207047002A828901D00A4314
:1027A00000E08A43828170474162704730B50288F9
:1027B000164C174DA0420DD0A8420BD0B0F1804F5F
:1027C00008D0144B984205D0134B984202D0134BBB
:1027D000984203D122F070034A881A43104B984262
:1027E00006D0104B984203D022F440730A891A4352
:1027F00002804A68C2620A880285A04201D0A842CB
:1028000001D1897A01860121818230BD0000014019
:10281000000401400004004000080040000C00409B
:10282000001000400014004070B51DA0FFF77AFEB4
:102830004FF4FA74204601F057F91BA0FFF772FE1F
:10284000204601F051F91AA0FFF76CFE65002846FA
:1028500001F04AF919A0FFF765FE284601F044F996
:1028600019A0FFF75FFE204601F03EF91AA0FFF71E
:1028700059FE204601F038F91AA0FFF753FE204612
:1028800001F032F91AA0FFF74DFE204601F02CF9B5
:102890001CA0FFF747FE2046BDE8704001F024B9B8
:1028A00041540D0A00000000415445300D0A00005B
:1028B00041542B49434349440D0A000041542B43E2
:1028C000474154543F0D0A0041542B534554564F31
:1028D0004C54453D310D0A0041542B434C49503D69
:1028E000310D0A0041542B434D47463D310D0A003E
:1028F00041542B435343533D2255435332220D0A37
:102900000000000041542B43534D503D31372C31D2
:1029100036372C302C380D0A0000000010B504A00A
:10292000FFF700FEBDE8104006A109A000F02CBC96
:1029300041544431353131383838323039313B0D3A
:102940000A00000031353131383838323039310041
:1029500043616C6C696E673A2025730A00000000C1
:1029600030B5A1B040216846FDF743FC00246D4618
:1029700007E013A015A1025D05EB840000F014FC34
:10298000641C0FA0005D0028F3D16A4611A110A8B5
:1029900000F00AFC10A8FFF7C5FD4FF4FA7001F033
:1029A000A3F810A0FFF7BEFD642001F09DF81A20E7
:1029B000FFF7A8FD40F6B83001F096F821B030BD21
:1029C0003135313138383832303931003030332513
:1029D0006300000041542B434D47533D2225732291
:1029E0000D0A000035334431373531463533373140
:1029F0003936363946463043384246373635353132
:102A000036334634464630310000000070B51D4C68
:102A100040F22551204600F020FB002830D020460F
:102A200000F0A8FB184DC1B20024687858B1012805
:102A30000CD0282822D2154A1154401CC0B268700C
:102A4000042806D00CE0A4291AD1F4E7032915D1F3
:102A5000F1E7D178491DC9B2A970491F24290DD2C7
:102A6000AA78002A0CD090420AD3287830B90749B6
:102A700001F12800FDF7A4FB012028706C70AC70F8
:102A800070BD0000004C0040A00000202805002080
:102A9000F0B50646012187B00846FFF71DFC01216D
:102AA000C804FFF725FC02218DF8141000248DF8CE
:102AB0001640012503208DF817501E4F04908DF805
:102AC000151004A93846FEF7D5FD08220021384626
:102AD000FEF70CFE082201213846FEF707FE00969D
:102AE000ADF808400C20144EADF80440ADF80A00D3
:102AF000ADF80640ADF80C406946304600F0E4FA07
:102B00000121304600F098FA012240F2255130466A
:102B100000F0C2FA34208DF8180007208DF8190053
:102B20008DF81A408DF81B5006A8FFF753FB07B02D
:102B3000F0BD000000000240004C004070B50F4C9A
:102B400040F225552946204600F087FA002814D087
:102B5000204600F00FFBC3B209480188B1F5FF7FA2
:102B600005D8028807491144521C02800B7029467F
:102B70002046BDE8704000F059BA70BD00500040DA
:102B8000A4000020B40500202DE9F041804688B063
:102B900001210C20FFF7A0FB01210805FFF7A8FB8E
:102BA00002248DF8044000254FF480508DF8065023
:102BB0000126254F00908DF807608DF80540694685
:102BC0003846FEF757FD08220C213846FEF78EFDE9
:102BD00004201E4F00908DF804408DF80760694670
:102BE0003846FEF747FD082202213846FEF77EFDF3
:102BF000ADF80C50ADF80E50ADF81050ADF81450C3
:102C00000C20134DADF81200CDF8088002A928461B
:102C100000F05AFA0121284600F00EFA012240F293
:102C20002551284600F038FA35208DF818008DF827
:102C300019408DF81A408DF81B6006A8FFF7CAFAF4
:102C400008B0BDE8F081000000080240000C02401E
:102C50000050004010B5064C0146204600F08EFAA8
:102C60008021204600F0F2F90028F9D010BD0000C4
:102C70000050004070B50646012186B00846FFF7B7
:102C80002BFB01211020FFF73FFB1A4D07220921E2
:102C90002846FEF72BFD07220A212846FEF726FDCF
:102CA00002218DF814104FF4C0608DF815100490B7
:102CB00000248DF8164001208DF8170004A928463D
:102CC000FEF7D8FCADF80440ADF80640ADF808407A
:102CD000ADF80C400C20084CADF80A00009669468F
:102CE000204600F0F1F90121204600F0A5F906B0D8
:102CF00070BD0000000002400010014010B50C4CF7
:102D000040F22551204600F0A8F900280FD02046B7
:102D100000F030FA074AC1B210885388401CC0F353
:102D20000800984203D0044B14881955108010BD38
:102D3000004400409A000020280100202DE9F041C5
:102D40008046012188B00846FFF7C6FA01214804F1
:102D5000FFF7CEFA02258DF8045004208DF80550B7
:102D60000024274F00908DF8064001268DF807605B
:102D700069463846FEF77EFC072202213846FEF7F8
:102D8000B5FC8DF8045008208DF8055000908DF8A2
:102D900006408DF8076069463846FEF76BFC07224F
:102DA00003213846FEF7A2FCADF810400C20154D6B
:102DB000ADF80C40ADF81200CDF80880ADF80E402B
:102DC000ADF8144002A9284600F07EF901212846FA
:102DD00000F032F9012240F22551284600F05CF95A
:102DE00026208DF8180003208DF819008DF81A4060
:102DF0008DF81B6006A8FFF7EDF908B0BDE8F0817B
:102E0000000002400044004010B54FF40071034838
:102E1000FDF7EFF902490020088010BD28030020CB
:102E20009E00002070B5104C40F2255529462046E2
:102E300000F013F9002815D0204600F09BF90B494B
:102E4000C0B20A88B2F5FF7F06D8094B9854521CCD
:102E500092B20A800020985429462046BDE870406E
:102E600000F0E4B870BD0000004800409E00002063
:102E7000280300202DE9F041804688B0012102207E
:102E8000FFF72AFA01218804FFF732FA02258DF8AC
:102E9000145000244FF440608DF8164001261F4F57
:102EA00004908DF817608DF8155004A93846FEF788
:102EB000E1FB07220A213846FEF718FC07220B2106
:102EC0003846FEF713FCADF80440ADF80640ADF807
:102ED0000840ADF80C400C20114CADF80A00CDF8BC
:102EE00000806946204600F0EFF80121204600F0FE
:102EF000A3F8012240F22551204600F0CDF827200A
:102F00008DF818008DF819508DF81A508DF81B6047
:102F100006A8FFF75FF908B0BDE8F08100040240A1
:102F20000048004010B5064C0146204600F026F946
:102F30008021204600F08AF80028F9D010BD00005A
:102F40000048004010B500F007F8BDE8104001A0AF
:102F500000F002B80D0A000010B5044602E0641C3F
:102F6000FFF7E0FF20780028F9D110BD70B50D46BD
:102F7000064600240BE031460748FDF745F908B145
:102F8000012070BD0A2000F0AFFD0A34A4B2AC42AB
:102F9000F1D3002070BD00002803002070B5054665
:102FA00086B001210420FFF797F901212020FFF7C7
:102FB000ABF94020022100908DF8041000248DF818
:102FC000064001208DF80700164E8DF80510694661
:102FD0003046FEF74FFB082206213046FEF786FBFF
:102FE0008020009069463046FEF744FB0822072106
:102FF0003046FEF77BFBADF80C40ADF80E40ADF867
:103000001040ADF814400C20074CADF812000295AA
:1030100002A9204600F058F80121204600F00CF8E3
:1030200006B070BD00080240001401400A0A0121E8
:103030009140C943018070470029818902D041F441
:10304000005101E021F400518181704702460020C7
:1030500012880A4200D00120704770B501F01F05A8
:1030600001260024C1F3421306FA05F2012B0FD00A
:10307000022B0FD0838A4FEA11210088134206FAEF
:1030800001F600EA060001D000B10124204670BD1F
:103090008389F0E7038AEEE710B5C1F3421301F02C
:1030A0001F040121A140012B07D0022B07D01430AF
:1030B000002A026805D00A4304E00C30F8E710301B
:1030C000F6E78A43026010BD7FB50446008A0D46CC
:1030D000C98820F4405001432182A08941F20C614B
:1030E0008843A9882A8911436A8902431143A1812F
:1030F000A08A20F44071A8890843A0826846FFF79F
:103100000FF91A48844202D01948844201D1039829
:1031100000E00298A189090400EBC00101EB001056
:10312000296801D5490000E08900B0FBF1F0642274
:10313000B0FBF2F109010B096FF018056B4300EBCE
:103140008300A3891D044FF0320306D503EBC000B2
:10315000B0FBF2F000F0070005E003EB0010B0FB5D
:10316000F2F000F00F00084320817FBD0010014005
:10317000001401408088C0F308007047C1F30801C3
:1031800081807047FEE700000FB4054B10B503A91E
:10319000044A029800F0EEF810BC5DF814FB000041
:1031A000513B0008000100200FB4084B10B504A9E2
:1031B00002AA039800F0DEF8044602A9002000F0FD
:1031C00070FC204610BC5DF814FB0000A33A000818
:1031D00002E008C8121F08C1002AFAD170477047E0
:1031E000002001E001C1121F002AFBD1704700003E
:1031F0002DE9FF5F82B00021DDE90430020DDDF82A
:1032000040B0034318D044F61050A2F2FF324243BC
:103210001514119801281FD0A5EB0B00401C5FEA84
:10322000000A4FF000064E4FDFF83891B046504686
:1032300015D5CAF1000413E0119801244AA301280E
:1032400001D16FEA0B010298119AC0E90031C0E97F
:10325000024206B0BDE8F09FCBF10000DFE7044674
:103260000021404A491842EB0450CDE9001012E019
:10327000E00707D032463B4640464946FDF7D7F8BF
:103280008046894632463B4610461946FDF7CFF840
:1032900006460F466410002CEAD1DDE90401DDE9A1
:1032A0000023BAF1000F06DAFDF7C1F842464B469B
:1032B000FDF7BDF805E0FDF72CF942464B46FDF75A
:1032C00028F904460E460022284BFDF7A9F903D839
:1032D0004FF0FF30014607E00022254B20463146E3
:1032E000FCF7FEFFFDF784F9102409E0002C0ADB4F
:1032F0000A220023FCF7C3FF039B30321A55641ED9
:1033000050EA0102F2D1641C039AC4F1110314447F
:10331000119A012A03D0012208430DD10AE0084383
:1033200004D000204FF0110B119072E7A3EB0B05B6
:103330006D1E0DE05B4504DD4FF0000205F1010557
:1033400004E003DA4FF00002A5F10105002AECD0F9
:1033500002981199C0E90231C0E9004579E70000FF
:10336000000014400000F03F300000000000F04377
:103370000000E03F2DE9FF4F95B09B468946064689
:1033800000250FE2252877D100242746F84A01219D
:10339000059400E0044316F8013F203B01FA03F0D6
:1033A0001042F7D130782A2811D06FF02F033078EF
:1033B000A0F13002092A16D8059A44F0020402EB63
:1033C000820203EB42021044761C0590EFE759F8A5
:1033D000042B0592002A03DA504244F4005405906D
:1033E00044F00204761C30782E2816D116F8010F0E
:1033F00044F004042A280DD06FF02F023078A0F199
:103400003003092B09D807EB870302EB4303C718E6
:10341000761CF3E759F8047B761C30786C280FD0C3
:1034200006DC4C2817D068280DD06A2814D104E097
:10343000742810D07A280FD10DE044F400140AE06B
:1034400044F4801401E044F440147278824202D1C2
:1034500004F58014761C761C307866280BD013DCBB
:10346000582877D009DC002875D04528F6D04628A2
:10347000F4D047281AD19DE118E0632835D064289C
:1034800079D0652812D195E1702873D008DC6728BF
:10349000F1D069286FD06E280DD06F2806D1B5E025
:1034A00073282CD0752875D0782874D05A4617996F
:1034B00090476D1C75E1C4F30250022809D003281F
:1034C0000DD0D9F8001004280DD00D6009F10409C1
:1034D00067E1D9F80010EA17C1E90052F6E7D9F818
:1034E00000100D80F2E70D70F0E719F8041B8DF85D
:1034F000001000208DF80100EA46012003E059F891
:1035000004AB4FF0FF3061074FF0000102D40DE033
:1035100008F101018846B9420FDA8045F8DB1AF854
:1035200008100029F4D108E008F101018846814221
:10353000FADB1AF808100029F6D105985B46A0EBD3
:10354000080721463846179A00F094FA284400EB01
:10355000080507E04DE029E10DE01AF8010B5A4695
:1035600017999047B8F10108F7D25B4621463846D3
:10357000179A13E142E00A220092C4F302524FF07C
:10358000000A022A08D059F804CB032A4FEAEC714A
:103590000AD00DE029E02AE009F1070121F0070235
:1035A000F2E802C1914609E00FFA8CFC4FEAEC7197
:1035B000042A03D14FFA8CFC4FEAEC71002907DA98
:1035C0000A460021DCF1000C61EB02012D2202E031
:1035D000220504D52B228DF80420012203E0E20706
:1035E00001D02022F7E7904659E00A2102E010229C
:1035F0000DE010214FF0000A00910BE010224FF077
:10360000000A44F004040827009203E008224FF067
:10361000000A0092C4F30252022A05D059F804CBE2
:103620000021032A08D009E009F1070121F007026F
:10363000F2E802C1914605E01FFA8CFC042A01D190
:103640000CF0FF0C4FF00008220728D5702806D098
:10365000009B83F0100353EA0A0305D00EE04022DA
:103660008DF80420012208E05CEA010206D0302235
:103670008DF804208DF8050002229046009B83F00F
:10368000080353EA0A030AD15CEA010201D1620786
:1036900005D530228DF804204FF001087F1E5828F0
:1036A00004D034A003900EA802900DE036A0F9E7F4
:1036B00053466046009AFCF7E2FD84460398825C1C
:1036C0000298401E029002705CEA0100F0D102985C
:1036D00006A9081A00F1200A600702D524F48034F4
:1036E00000E00127574502DDA7EB0A0000E00020BB
:1036F00000EB0A01009005984144401A0590E00350
:1037000006D45B462146179A059800F0B3F90544A4
:10371000002706E001A85A46C05D179990476D1C26
:103720007F1C4745F6DBE0030CD55B462146179A24
:10373000059800F09FF9054404E030205A46179997
:1037400090476D1C0099481E00900029F5DC08E0A8
:10375000029802995A460078491C0291179990479D
:103760006D1CBAF10001AAF1010AF1DC65E100006B
:103770000928010030313233343536373839616247
:10378000636465660000000030313233343536370B
:1037900038394142434445460000000000F058F9E2
:1037A0000544761C307800287FF4ECAD19B028462B
:1037B000BDE8F08F620700D4062709F1070222F066
:1037C000070CFCE80223E14603F000485FEA080C1E
:1037D00002D00FF2702C0DE05FEA045C02D50FF20C
:1037E000682C07E05FEAC47C02D00FF2602C01E095
:1037F000AFF2700C4FF0FF3823F00043CDF850C00B
:1038000065280CD006DC452809D046281DD047285D
:103810003DD13DE0662818D067287ED138E00021F0
:10382000112F01DB112000E0781CCDE9000106A971
:103830000EA8FFF7DDFCDDE90F010E9A03910021D0
:10384000009207F1010A04914DE04FF0004000970B
:10385000CDE9011006A90EA8FFF7CAFCDDE90F02A9
:1038600003920E9B11990022DDF80CA000930492A4
:1038700011B9791C00EB010AB7EB0A0004D4C0F1BE
:10388000FF3007F1010A0490AAEB0700019044E021
:10389000012F00DA01270021112F01DD112000E0A6
:1038A0003846CDE9000106A90EA8FFF7A1FCDDE925
:1038B0000F010E9A0391002104910092BA4621074C
:1038C0000CD40399514500DA8A46BAF1010F05DD9F
:1038D000009AAAF10101515C302908D0B84202DAFD
:1038E00010F1040F06DA0121CDE9011015E0AAF16B
:1038F0000101E9E7002805DC049901440491AAEBE1
:10390000000102E0411C514500DD8A460499401A3D
:10391000401C01904FF000400290200704D4019811
:10392000504501DBCDF8048000208DF84F0002984F
:103930000DF14F07B0F1004F25D02B200E900298CB
:103940004FF0020800280CDA404202902D200E9021
:1039500007E00A210298FCF77CFC3031029007F85E
:10396000011DB8F10001A8F10108F2DC029800285D
:10397000EFD1791E0E980870307800F0200040F0EA
:10398000450007F8020D12A8C01B00F107081498A3
:10399000007800B1012000EB0A01019801EBE07111
:1039A00005984144401A401E0590E00306D45B464A
:1039B0002146179A059800F05DF8054414980078A0
:1039C00018B15A46179990476D1CE00324D55B4601
:1039D0002146179A059800F04DF805441CE004981C
:1039E000002807DBDDE90301884203DD0098405C25
:1039F000179901E0179930205A469047049805F12D
:103A00000105401C04900198401E019004D12E2015
:103A10005A46179990476D1CBAF10001AAF1010AA4
:103A2000DDDC05E017F8010B5A46179990476D1C2D
:103A3000B8F10001A8F10108F4DC5B462146179AB1
:103A40000598ABE62D0000002B00000020000000D0
:103A50002DE9F041044600251E461746880404D48B
:103A600005E039462020B0476D1C641EF9D5284674
:103A7000BDE8F0812DE9F041044600251E46904640
:103A8000C80301D5302700E02027880404D505E0CD
:103A900041463846B0476D1C641EF9D52846BDE83E
:103AA000F0810A68531C0B60107070474FF0E021E2
:103AB0000A6942F004020A610A4A01231070538025
:103AC0004FF47A7210FB02F00A6942F002020A61B6
:103AD000401E486100208861086940F001000861CB
:103AE00070470000F800002070B504460A4D4FF4FE
:103AF0007A7603E0241A304600F010F86888844291
:103B0000F8D2002C06D04FF47A706043BDE87040C4
:103B100000F004B870BD0000F800002070B54FF050
:103B2000E02500216C69094AAB6912785043AA6903
:103B30009A42FCD002D2A3EB020302E0A4EB0206FD
:103B40003344194413468142F1D370BDF80000207C
:103B500010B50446C0B2FFF77DF8204610BD10B581
:103B60000020FEF713FA0120FEF710FA0220FEF7FC
:103B70000DFA0320FEF70AFA0420FEF707FA0520E3
:103B8000FEF704FA0620FEF701FABDE81040072010
:103B9000FEF7FCB9FCF736FEFDF7BAF9FDF716F9AA
:103BA000FDF786FAFDF7C6F8FDF764F93220FFF756
:103BB0009BFFF1E710B50020FEF7B4F90120FEF7F6
:103BC000B1F90220FEF7AEF90320FEF7ABF90420AD
:103BD000FEF7A8F90520FEF7A5F90620FEF7A2F9E1
:103BE000BDE810400720FEF79DB910B5FEF71CFE9A
:103BF000FEF7B6FE4FF47A70FFF776FFBDE810408F
:103C0000FEF78CBE10B54FF42F70FFF76DFFFFF776
:103C1000D1FF4FF49670FFF767FFBDE81040FFF744
:103C20009EBF000020205461726765745B25645D4F
:103C30003A20416E676C653D2564206465672C20E1
:103C400044697374616E63653D25646D2C20537007
:103C50006565643D25646B6D2F682C20534E523D85
:103C600025640D0A00000000526F6C6C3A25366422
:103C70002028252E326620646567292050697463E8
:103C8000683A2536642028252E3266206465672927
:103C9000205961773A2536642028252E3266206423
:103CA000656729207C2057313A2534642057323A01
:103CB0002534642057333A253464207C2044313A3B
:103CC0002534642044323A2534640D0A0000000093
:103CD0005B4D5154545D2055706C6F61643A2052B5
:103CE0006F6C6C3D252E32662064656720506974C8
:103CF00063683D252E326620646567205961773DF3
:103D0000252E3266206465672053706565643D2505
:103D1000640D0A0076657273696F6E3D323031381A
:103D20002D31302D3331267265733D70726F64759D
:103D30006374732532463146757037417732507857
:103D4000253246646576696365732532467465730A
:103D500074322665743D313739363934383830306D
:103D6000266D6574686F643D6D6435267369676E92
:103D70003D4238724270584C75636F354C61366AFB
:103D80004B384B64484A67253344253344000000D0
:103D9000B03D00080000002004010000D031000800
:103DA000B43E0008040100206C0C0000E031000863
:103DB00000000000010203040102030406070809D1
:103DC00008000102030405060700000000000000CF
:103DD00000000000000000000000000000FFFFFFE6
:103DE000FF80C0E0F0F8FCFEFF00000000000000D3
:103DF000000000000000000000FFFFFFFF000000C7
:103E000000FFFEFCF8F0E0C0800103070F1F3F7FBA
:103E1000FF00000000FFFFFFFF00000000000000A7
:103E2000000000000000000000FF7F3F1F0F07039D
:103E300001FFFFFFFF000000000000000000000085
:103E40000000000000000000000000000000000072
:103E50000000000000000000000000000000000062
:103E60000000000000000000000000000000000052
:103E7000C4090000C40900000000000000000000A8
:103E80000000000000000000000000000000000032
:103E90000000000000000000000000000000000022
:103EA0000000000000000000000000000000000012
:043EB000000000000E
:040000050800018965
:00000001FF
